:020000040000FA
:08000000803102288731DD2F59
:100C4400023400340034B434640080010131890B6F
:100C5400272E0034FE0012001E00FE0B2D2E003441
:100C64002000911C362E372E322E91100800F030C1
:100C7400210099003F30980023008C0120008C0152
:100C84001F3021008C0022008C0123008D012000E4
:100C94008D0121008D0122008D0120008E018A30FA
:100CA40021008E0022008E0120009001210090017D
:100CB400220090010530F1000F30F000F130890B73
:100CC400612EF00B612EF10B612E00000C3026001A
:100CD400930022001D13673020009B001E30260065
:100CE400910020001C159C101C1408004C349F34E7
:100CF400ED343E346634B534C734143459348A344C
:100D0400F8342B347334A034D23401348E345D344B
:100D14002F34FC34A43477340534D6349B3448342B
:100D24003A34E934B13462341034C3342D34FE34EB
:100D34008C345F340734D434A63475343834EB340B
:100D440099344A341234C134B3346034EF343C340B
:100D54004E349D34C53416346434B734FA342934EB
:100D64005B348834D03403347134A2342000BA01A3
:100D7400B901B8010C18BF2EC02EC42E8D163A1519
:100D8400B816C72E8D123A11B8128C18CA2ECB2E53
:100D9400CF2E0D16BA153816D22E0D12BA113812DE
:100DA4000C19D52ED62EDA2E8D153A16B815DD2E41
:100DB4008D113A12B8118C19E02EE12EE52E0D1585
:100DC400BA163815E82E0D11BA1238110C1AEB2E7A
:100DD400EC2EF32E8D140630BA00B901B701B70A10
:100DE400F52E8D10B7018E19F82EF92E002F0D1443
:100DF4000230BA00B901B601B60A022F0D10B601CD
:100E04000800863139268731C8302000A0008B3095
:100E1400A100A201A301A401A501A601A701A801A3
:100E2400A9014C30AA008631B826873120003A083F
:100E3400A2003908A3003703031D212F222F252FD9
:100E4400D530AA002B2F3808A03E86008701010860
:100E5400AA003603031D2F2F302F322FB430AA00DF
:100E6400FD017D08203E8600870101088731532754
:100E740087310130FC007C08FD070B307D02031C28
:100E8400442F452F332F1E3026009100D030FC0014
:100E9400CA30890B4B2FFC0B4B2F0000152F8031D0
:100EA4000228FB0071308600003087000830F00013
:100EB40000301E00F00B5B2F7B080139F1007B36FC
:100EC4000139F2007B08F0000230F036890B672FFD
:100ED40070080139F3007B08F0000330F036890B09
:100EE400702F70080139F4007B08F0000430F036EC
:100EF400890B792F70080139F5007B08F000053063
:100F0400F036890B822F70080139F6007B08F00057
:100F14000630F036890B8B2F70080139F7007B08F7
:100F2400F0000730F036890B942F70080139F8006F
:100F3400863132268731373026009100FA017A084B
:100F4400713E860087010103031DA92FAA2FB12F2B
:100F54007A08713E860087011E308100B72F7A0817
:100F6400713E860087013730810086313226873111
:100F74007A08713E8600870101082600910001303D
:100F8400F0007008FA0708307A02031CCA2FCB2F2E
:100F9400A12FF9018631322687311E3026009100B7
:100FA4000130F0007008F90708307902031CDB2FC8
:100FB400DC2FCC2F080022308400863085003B30A3
:100FC400860000308700043086312C268731783043
:100FD400840086308500A0308600003087004030D1
:100FE40086312C26873120308400003085001B3068
:0C0FF40086312626873120008731032F2C
:020000040001F9
:04000E00A40EFF1F1E
:00000001FF
