:020000040000FA
:08000000803102288731DD2F59
:100C5A00023400340034B434640080010131890B59
:100C6A00322E0034FE0012001E00FE0B382E003415
:100C7A002000911C412E422E3D2E91100800F0308A
:100C8A00210099003F30980023008C0120008C013C
:100C9A001F3021008C0022008C0123008D012000CE
:100CAA008D0121008D0122008D0120008E018A30E4
:100CBA0021008E0022008E01200090012100900167
:100CCA00220090010530F1000F30F000F130890B5D
:100CDA006C2EF00B6C2EF10B6C2E00000C302600E3
:100CEA00930022001D13673020009B001E3026004F
:100CFA00910020001C159C101C1408004C349F34D1
:100D0A00ED343E346634B534C734143459348A3435
:100D1A00F8342B347334A034D23401348E345D3435
:100D2A002F34FC34A43477340534D6349B34483415
:100D3A003A34E934B13462341034C3342D34FE34D5
:100D4A008C345F340734D434A63475343834EB34F5
:100D5A0099344A341234C134B3346034EF343C34F5
:100D6A004E349D34C53416346434B734FA342934D5
:100D7A005B348834D03403347134A2342000B9018E
:100D8A00B801B7010C18CA2ECB2ECF2E8D163915E5
:100D9A00B716D22E8D123911B7128C18D52ED62E1F
:100DAA00DA2E0D16B9153716DD2E0D12B9113712B6
:100DBA000C19E02EE12EE52E8D153916B715E82E01
:100DCA008D113912B7118C19EB2EEC2EF02E0D1550
:100DDA00B9163715F32E0D11B91237110C1AF62E52
:100DEA00F72EFB2E8D14B816B714FE2E8D10B812DE
:100DFA00B7108E19012F022F062F0D14381737142A
:100E0A00092F0D1038133710080086314426873110
:100E1A008631C3268731C8302000A0008B30A1005C
:100E2A00A201A301A401A501A601A701A801A90184
:100E3A004C30AA003908A2003808A3003603031D63
:100E4A00272F282F2C2FB601D530AA00322F37088A
:100E5A00A03E860087010108AA00FD017D08203E08
:100E6A008600870101088731532787310130FC004A
:100E7A007C08FD070B307D02031C442F452F332FBE
:100E8A001E3026009100D030FC00CA30890B4B2F4F
:100E9A00FC0B4B2F00000D2F80310228FB00713014
:100EAA008600003087000830F00000301E00F00B8A
:100EBA005B2F7B080139F1007B360139F2007B0890
:100ECA00F0000230F036890B672F70080139F30001
:100EDA007B08F0000330F036890B702F7008013957
:100EEA00F4007B08F0000430F036890B792F700883
:100EFA000139F5007B08F0000530F036890B822FA6
:100F0A0070080139F6007B08F0000630F036890BCC
:100F1A008B2F70080139F7007B08F0000730F03694
:100F2A00890B942F70080139F80086313D268731E4
:100F3A00373026009100FA017A08713E860087014F
:100F4A000103031DA92FAA2FB12F7A08713E86002B
:100F5A0087011E308100B72F7A08713E860087010B
:100F6A003730810086313D2687317A08713E860006
:100F7A0087010108260091000130F0007008FA0785
:100F8A0008307A02031CCA2FCB2FA12FF901863110
:100F9A003D2687311E30260091000130F00070088E
:100FAA00F90708307902031CDB2FDC2FCC2F08004D
:100FBA002D308400863085003A3086000030870064
:100FCA0004308631372687318330840086308500A5
:100FDA00A0308600003087004030863137268731BE
:100FEA0020308400003085001A308631312687315E
:060FFA00200087310A2FE0
:020000040001F9
:04000E00A40EFF1F1E
:00000001FF
