:020000040000FA
:08000000803102288731EF2F47
:100D52001630210097000800FE0012001E00FE0B54
:100D6200AE2E00342000911CB72EB82EB32E911057
:100D72000800673020009B009A01911005309C000A
:100D82000800C8348B34003400340034003400349A
:100D92000034003400344C34703021009900980142
:100DA2002200960121001A1FD72ED82ED32E08001A
:100DB2000C3026009300950180309400013096009B
:100DC20092011E309100CF3025009E050800863129
:100DD200F82686318631CD2686318631A92686319E
:100DE2008631BA2686318631D9268631080022001C
:100DF20090018C018D018E01083021009000FF309E
:100E02008C00C0308D00BF308E0023008D018C011C
:100E1200240090018D012100951722009D010800F8
:100E2200F301F401262F7408700786000030713D2B
:100E3200870001087306003E840088300318013ED3
:100E420085000008F3000130F40772087402031CE5
:100E52002B2F2C2F142F73084C3A0800F1008631E7
:100E6200B3268731373026009100F5018631B3264B
:100E720087317108F000750A3F2FF036890B3E2F3B
:100E82007018442F452F4A2F3730F2000030F300FC
:100E92004E2F1E30F2000030F3007208260091003F
:100EA2000130F50708307502031C582F592F372FD0
:100EB200F4018631B32687311E30260091000130BD
:100EC200F40708307402031C672F682F5A2F08009A
:100ED2008631E82687318731A427873179082000B7
:100EE200A2007808A3007908A6007908A70078086C
:100EF200A8007808A9002230F0000030F100083084
:100F0200F2008731112787312000AA00F701770804
:100F1200203E860087010030873D010887312F2758
:100F220087310130F7070B307702031C992F9A2F74
:100F3200882FD030F600CA30890B9D2FF60B9D2FDB
:100F42006C2F80310228F901F80120000C18AA2F19
:100F5200AB2FAF2F22008D167915B22F22008D12E2
:100F6200791120008C18B62FB72FBB2F22000D1637
:100F7200F915BE2F22000D12F91120000C19C22FF3
:100F8200C32FC72F22008D157916CA2F22008D116B
:100F9200791220008C19CE2FCF2FD32F22000D15BE
:100FA200F916D62F22000D11F91220000C1ADA2F91
:100FB200DB2FDF2F22008D14F816E22F22008D1076
:100FC200F81220008E19E62FE72FEB2F22000D14C6
:100FD2007817EE2F22000D1078130800C23084001B
:100FE2008630850020308600003087000B30863145
:100FF200AD268731F801F90120008731692F0034CD
:10100200D0343134E1346234B23453348334C434AE
:101012001434F5342534A6347634973447341934ED
:10102200C9342834F8347B34AB344A349A34DD344E
:101032000D34EC343C34BF346F348E345E3432348D
:10104200E2340334D334503480346134B134F6346E
:101052002634C734173494344434A53475342B34CD
:10106200FB341A34CA34493499347834A834EF340E
:101072003F34DE340E348D345D34BC346C3464342D
:10108200B434553485340634D6343734E734A03496
:10109200703491344134C2341234F33423347D3405
:1010A200AD344C349C341F34CF342E34FE34B93436
:1010B200693488345834DB340B34EA343A345634E5
:1010C20086346734B7343434E4340534D534923456
:1010D2004234A3347334F0342034C13411344F34E5
:1010E2009F347E34AE342D34FD341C34CC348B34F6
:1010F2005B34BA346A34E9343934D8340834C83405
:101102001834F9342934AA347A349B344B340C34ED
:10111200DC343D34ED346E34BE345F348F34D1343C
:101122000134E0343034B33463348234523415340D
:10113200C5342434F4347734A73446349634FA343C
:101142002A34CB341B3498344834A93479343E34AD
:10115200EE340F34DF345C348C346D34BD34E3341C
:101162003334D234023481345134B03460342734CD
:10117200F7341634C634453495347434A434AC345C
:101182007C349D344D34CE341E34FF342F346834D5
:10119200B834593489340A34DA343B34EB34B53454
:1011A200653484345434D7340734E63436347134F5
:1011B200A134403490341334C3342234F2349E3494
:1011C2004E34AF347F34FC342C34CD341D345A3495
:1011D2008A346B34BB343834E8340934D934873434
:1011E2005734B6346634E5343534D43404344334B5
:0E11F20093347234A2342134F1341034C034FA
:020000040001F9
:04000E00E43FFF1FAD
:00000001FF
